:100000000C942A000C943F000C943F000C943F0089
:100010000C943F000C943F000C943F000C943F0064
:100020000C943F000C943F000C943F000C943F0054
:100030000C943F000C943F000C943F000C943F0044
:100040000C943F000C943F000C943F000C943F0034
:100050000C943F0011241FBECFE5D8E0DEBFCDBF1A
:1000600010E0A0E6B0E0E8EDF9E002C005900D92E6
:10007000A239B107D9F70E9473010C94EA040C94D9
:10008000000017B886B186B93E9A87B1866087B9F5
:1000900086B1836086B9379A369A3699FECF84B195
:1000A00095B108950E944100009729F0049730F01F
:1000B00082E090E0089581E090E0089590E080E093
:1000C000089517B886B186B93E9A87B1856087B919
:1000D00086B1836086B9379A369A3699FECF84B155
:1000E00095B108950E9461009C01CC9730F02D32AB
:1000F000314030F082E090E0089581E090E0089592
:1001000090E080E00895D49ADC988FE39CE9019711
:10011000F1F700C00000DC9A0895D498CC99FECF86
:10012000CC9BFECFCC99FECF089528E030E080E054
:10013000CC9BFECF90E59A95F1F7880FCC99816022
:10014000CC99FECF2150310999F708950F931F9351
:10015000CF93DF93EC01198218821B821A820E94CE
:1001600083000E948D000E949500082F0E94950038
:100170000E949500182F0E9495000E949500802FE4
:1001800090E09D838C83812F90E09F838E838FE10D
:100190009EE40197F1F700C0000081E090E00023A9
:1001A00021F0043020F082E090E09983888384E09D
:1001B00090E0112321F0143020F085E090E09B8343
:1001C0008A83CE01DF91CF911F910F910895FC0199
:1001D0001182108213821282158214821782168273
:1001E000089582BBD898D998DA9A82E08A95F1F777
:1001F00000C0DA988FE697E10197F1F700C00000A0
:10020000089582BBD89AD998DA9A82E08A95F1F754
:1002100000C0DA988FEC97E00197F1F700C000007A
:1002200008958FEF8ABB81BB8FE39CE90197F1F7BB
:1002300000C0000088E30E94F1008CE00E94F10001
:1002400086E00E94F10081E00E94F10080E80C94B9
:10025000F100CF93DF93EC018991811103C0DF910D
:10026000CF9108950E940101F7CFCF93DF93282FFC
:10027000862FD42FC52F21110BC0603118F4806850
:100280000E94F1008D2F9C2FDF91CF910C942901BA
:100290002130C1F76031B0F7806CF2CF81E00E946D
:1002A000F10080E80C94F10008950C9452000E9433
:1002B00072009C0181E090E02130310511F090E066
:1002C00080E00895CF93DF93D82FC92F0E94A60016
:1002D0008D2F9C2FDF91CF91089563E070E00E94F5
:1002E000E501CB010895CDB7DEB764970FB6F8945A
:1002F000DEBF0FBECDBF3E9A86B1836086B9379A06
:100300000E9411018CE3982E9AE8C92E90E0D92E14
:100310002EE6A22E20E0B22E0E946100182F092F97
:100320000E944100F82EE92E0E9457010197A1F189
:1003300060E670E0CE0101960E940D02CE010196AA
:100340000E9429010F931F93EF92FF921F921F9219
:100350001F921F92BF92AF9281E090E08C0F9D1F81
:100360009F938F930E94140280EC0E94F100CE01B3
:1003700001960E9429010FB6F894DEBF0FBECDBFD3
:100380009FEF29E688E1915020408040E1F700C0CE
:1003900000000E944E01C0CF6EE770E0CE010196D2
:1003A0000E940D02CE0101960E9429011F929F9288
:1003B0000F931F93DF92CF9281E090E08C0F9D1FEF
:1003C0009F938F930E941402CFCF97FB072E16F4B2
:1003D000009407D077FD09D00E94F90107FC05D0F1
:1003E0003EF4909581959F4F0895709561957F4F4C
:1003F0000895AA1BBB1B51E107C0AA1FBB1FA6176C
:10040000B70710F0A61BB70B881F991F5A95A9F7BD
:1004100080959095BC01CD010895FB01DC01019010
:100420000D920020E1F70895AEE0B0E0EAE1F2E0DD
:100430000C94C1040D891E8986E08C831A8309837C
:100440008FEF9FE79E838D83AE01475E5F4F6F897D
:10045000788DCE0101960E9437022F813885020FD8
:10046000131FF80110822E96E4E00C94DD04AFE037
:10047000B0E0EDE3F2E00C94B3047C013B018A01AF
:10048000DC0117961C921E92169713968C9181FF91
:10049000C3C19AE0292EFE0131964F01D701139670
:1004A0009C91F30193FD859193FF81913F018823F6
:1004B00009F448C1853239F493FD859193FF819108
:1004C0003F01853229F4B70190E00E942504E6CF70
:1004D000B12C412C512CBFE1B51538F08B3209F10C
:1004E00088F4803201F1833221F157FC3AC020EDCB
:1004F000280F2A3040F556FE1FC0B29C200D112453
:10050000B22E06C08D3291F0803379F7689450F89E
:10051000F30193FD859193FF81913F018111DBCF21
:1005200020C0689451F8689452F8F2CF689453F858
:10053000EFCF689454F8ECCF429C200D1124422E4A
:10054000689455F8E5CF8E3229F456FCFBC06894C8
:1005500056F8DECF8C3619F4689457F8D9CF883620
:10056000B9F2982F9F7D95549330C0F08336A1F156
:100570008337C1F1833509F05BC0D801CD90DD90A0
:100580008D016B2D70E056FC02C06FEF7FEFC6014E
:100590000E940F045C01689457F80AC00C5F1F4F5B
:1005A000EFE3E983AA24A394B12C6401E89457F8FB
:1005B00053FC04C04A141B0409F018F5342CA11490
:1005C000B10431F5332009F469CFB70180E290E03E
:1005D0000E9425043A94F6CFD8018C9189830E5F4E
:1005E0001F4FE0CFF801C190D1908F016B2D70E0CB
:1005F00056FC02C06FEF7FEFC6010E941A045C0137
:10060000D5CFB70180E290E00E9425044A94D2CF72
:10061000F60157FC859157FE81916F01B70190E07B
:100620000E94250431103A94B1E0AB1AB108C7CF4B
:10063000843619F0893609F074C0F80157FE6AC093
:1006400061917191819191918F01E52DEF76DE2E6F
:1006500097FF09C090958095709561957F4F8F4F5A
:100660009F4F6894D7F82AE030E0A4010E94550417
:10067000C82EC818AC2C5D2CD6FE0CC0E89450F8DF
:10068000CB1440F4D4FE05C0D2FC03C05D2D5E7EC9
:10069000552EAB2C54FE98C0FE01EC0DF11D80814F
:1006A000803309F08AC0652D697E562E752D7870CD
:1006B000372E53FC98C050FE92C0BC2CA41418F4E2
:1006C0004C0CB42CBA1854FE94C0B70180E390E0EF
:1006D0000E94250452FE09C088E790E051FE02C046
:1006E00088E590E0B7010E942504CB1408F48DC082
:1006F000CA94D12C8FEFC81AD80AC80CD91CD601BD
:100700008E916D01B70190E00E9425048C149D0428
:10071000B1F758CF61917191072E000C880B990B9E
:1007200093CFD52CE894D4F82AE030E0853739F11E
:10073000F52DF97FDF2E8037A9F058F48835A9F020
:100740008F36D9F0F701868197812F96E2E10C94DC
:10075000CF048837B9F7D4FE02C06894D2F820E1FC
:1007600030E00DC06894D4F8F6CF54FE03C02F2FAC
:100770002660D22E20E132E002C028E030E0F8010D
:10078000D7FE15C041915191619171914C875D8760
:100790006E877F878F01A4016C857D858E859F85FF
:1007A0000E945504C82EC818E894D7F863CF8191E9
:1007B0009191AC0170E060E0E9CF52FC02C0A394DB
:1007C00075CFA394A39472CF852D867809F46ECF4C
:1007D000F6CFB70180E290E00E942504A394A41410
:1007E000C0F3312C70CF342C3A18A41408F46BCF1A
:1007F000F8CF852D867809F478CF8BE251FE80E220
:1008000057FC8DE2B70190E06ECFB70180E390E036
:100810000E942504BA9469CF8FEF9FEF96CFFC0119
:100820000590615070400110D8F7809590958E0F1B
:100830009F1F0895FC016150704001900110D8F78E
:10084000809590958E0F9F1F08950F931F93CF93C0
:10085000DF93182F092FEB018B8181FD09C01FEF5A
:100860000FEF812F902FDF91CF911F910F9108955E
:1008700082FF14C02E813F818C819D81281739070A
:100880003CF4E881F981CF01019699838883108334
:100890008E819F8101969F838E83E3CFE885F985C2
:1008A000812F0995892BA1F3DACFFA01AA272830E5
:1008B00051F1203181F1E8946F936E7F6E5F7F4F2D
:1008C0008F4F9F4FAF4FB1E03ED0B4E03CD0670FA9
:1008D000781F891F9A1FA11D680F791F8A1F911DFC
:1008E000A11D6A0F711D811D911DA11D20D009F44C
:1008F00068943F912AE0269F11243019305D31938E
:10090000DEF6CF010895462F4770405D4193B3E076
:100910000FD0C9F7F6CF462F4F70405D4A3318F01D
:10092000495D31FD4052419302D0A9F7EACFB4E0CE
:10093000A6959795879577956795BA95C9F7009786
:100940006105710508959B01AC010A2E0694579527
:10095000479537952795BA95C9F7620F731F841F7E
:10096000951FA01D08952F923F924F925F926F9214
:100970007F928F929F92AF92BF92CF92DF92EF922F
:10098000FF920F931F93CF93DF93CDB7DEB7CA1BB0
:10099000DB0B0FB6F894DEBF0FBECDBF09942A88DB
:1009A000398848885F846E847D848C849B84AA8483
:1009B000B984C884DF80EE80FD800C811B81AA8110
:1009C000B981CE0FD11D0FB6F894DEBF0FBECDBFDB
:0809D000ED010895F894FFCF3A
:1009D8004448202054202057502020575400256494
:1009E8002C2025642C2025642C2025642000446FAD
:1009F8006C656A20776F647921002564202F202593
:020A0800640088
:00000001FF
